:100000000C942A000C9434000C9434000C943400AA
:100010000C9434000C9434000C9434000C94340090
:100020000C9434000C9434000C9434000C94340080
:100030000C9434000C9434000C9434000C94340070
:100040000C9434000C9434000C9434000C94340060
:100050000C94340011241FBECFE5D8E0DEBFCDBF25
:100060000E9447000C9462000C94000080E487B961
:1000700087E886B9089597B18770987F892B87B9EB
:10008000369A3699FECF24B135B1C90108951F9330
:1000900081E084BB80E487B987E886B984EF91E08A
:1000A00028EC30E0F9013197F1F70197D9F711E029
:1000B00080E00E943B00845F914010F415BAF8CFB5
:0800C00015BBF6CFF894FFCF49
:00000001FF
