:100000000C942A000C9434000C9434000C943400AA
:100010000C9434000C9434000C9434000C94340090
:100020000C9434000C9434000C9434000C94340080
:100030000C9434000C9434000C9434000C94340070
:100040000C9434000C9434000C9434000C94340060
:100050000C94340011241FBECFE5D8E0DEBFCDBF25
:100060000E9447000C9464000C94000080E487B95F
:1000700087E886B9089597B18770987F892B87B9EB
:10008000369A3699FECF24B135B1C90108950F9340
:100090001F938FEF87BB80E487B987E886B984EF29
:1000A00091E028EC30E0F9013197F1F70197D9F7A9
:1000B00006EC1DEB80E00E943B008C5B924010F44C
:0C00C00018BBF8CF08BBF6CFF894FFCFB8
:00000001FF
