:100000000C942A000C9434000C9434000C943400AA
:100010000C9434000C9434000C9434000C94340090
:100020000C9434000C9434000C9434000C94340080
:100030000C9434000C9434000C9434000C94340070
:100040000C9434000C9434000C9434000C94340060
:100050000C94340011241FBECFE5D8E0DEBFCDBF25
:100060000E9436000C945C000C940000889A10BC2E
:1000700089E189B988E18AB98EE080BD87B387605C
:1000800087BBA09AA19A8CB15F9BFECF803F29F4D9
:1000900088B3856088BBC198F6CF883F29F488B3C0
:1000A000866088BBC098EFCF8F3011F4A89AEBCF51
:0C00B0008F3149F7A898E7CFF894FFCFF4
:00000001FF
