:100000000C942A000C9434000C9434000C943400AA
:100010000C9434000C9434000C9434000C94340090
:100020000C9434000C9434000C9434000C94340080
:100030000C9434000C9434000C9434000C94340070
:100040000C9434000C9434000C9434000C94340060
:100050000C94340011241FBECFE5D8E0DEBFCDBF25
:100060000E9436000C944D000C94000083E087BB86
:1000700052E020E23EE441E058BBC9010197F1F7AC
:1000800018BAC9010197F1F748BBC9010197F1F707
:0E00900018BAC9010197F1F7EFCFF894FFCF2E
:00000001FF
