:100000000C942A000C9434000C9434000C943400AA
:100010000C9434000C9434000C9434000C94340090
:100020000C9434000C9434000C9434000C94340080
:100030000C9434000C9434000C9434000C94340070
:100040000C9444000C9434000C9434000C94340050
:100050000C94340011241FBECFE5D8E0DEBFCDBF25
:100060000E9436000C9484000C94000087B38760D3
:1000700087BB889AA79A329A87B1806C87B9339ADE
:10008000379A7894369AFFCF1F920F920FB60F923D
:1000900011242F933F938F939F9334B125B1922FC7
:1000A00080E0232F30E0282B392B87B1813C91F061
:1000B000823CC1F0803CF1F4245F314028F488B3E5
:1000C000856088BBC19804C088B3866088BBC0982F
:1000D00081EC0FC02A3A310510F4909A01C0909833
:1000E00082EC07C02159314010F0AF9A01C0AF989F
:1000F00080EC87B9369A9F918F913F912F910F9005
:0C0100000FBE0F901F901895F894FFCFD1
:00000001FF
