:100000000C942A000C943F000C943F000C943F0089
:100010000C943F000C943F000C943F000C943F0064
:100020000C943F000C943F000C943F000C943F0054
:100030000C943F000C943F000C943F000C943F0044
:100040000C943F000C943F000C943F000C943F0034
:100050000C943F0011241FBECFE5D8E0DEBFCDBF1A
:1000600010E0A0E6B0E0EAEBF0E002C005900D92EF
:10007000A236B107D9F70E9441000C945B000C94A2
:100080000000899A8898909A14BA81E085BB10BCC8
:1000900089E189B988E18AB98EE080BD80E690E087
:1000A00028ED36ED9899FECF5D9BFECF8CB9F90116
:0A00B0003197F1F7F7CFF894FFCF76
:0200BA006100E3
:00000001FF
