S00B00007665722E73726563CC
S11300000C942A000C9447000C9447000C9447006D
S11300100C9447000C9447000C9447000C94470040
S11300200C9447000C9447000C9447000C94470030
S11300300C9447000C9447000C9447000C94470020
S11300400C9447000C9447000C9447000C94470010
S11300500C94470011241FBECFE5D8E0DEBFCDBF0E
S113006010E0A0E6B0E0ECE0F3E002C005900D92F1
S1130070A837B107D9F720E0A8E7B0E001C01D9286
S1130080AA38B207E1F70E94F4000C9484010C949E
S113009000005D9BFECF8CB90895CF93DF93EC01F4
S11300A08881882331F021960E9449008991811129
S11300B0FBCFDF91CF91089582E690E00E944D003E
S11300C008951F93CF93DF93CDB7DEB728970FB66C
S11300D0F894DEBF0FBECDBF182FCB014AE050E02D
S11300E0BE016F5F7F4F0E943C01812F0E94490037
S11300F08AE30E944900CE0101960E944D0085E7E3
S113010090E00E944D0028960FB6F894DEBF0FBE13
S1130110CDBFDF91CF911F910895F89488E0E1E875
S1130120F0E0A9E7B0E001900D928A95E1F7E09143
S11301308100F0E088E0DF011D928A95E9F7789468
S11301400895CF93DF93CDB7DEB760970FB6F894D9
S1130150DEBF0FBECDBF6DE370E089E790E00E9483
S11301602A01BC016F5F7F4FCE0101960E943501C9
S1130170CE0101960E940C01BC01882777FD809571
S1130180982F60960FB6F894DEBF0FBECDBFDF91F7
S1130190CF910895809179008D34D1F08335F9F4AD
S11301A080917A008F3349F460916000709161000E
S11301B083E590E00E946100089580917A008D3378
S11301C091F40E94A100709361006093600008950F
S11301D080917A008F3339F080917A00089587E610
S11301E090E00E944D0008958AB188618AB980B573
S11301F0866080BD10BC87E689B9579A789480914F
S113020089008130E1F70E948D000E94CA0010929B
S113021089000E945C00F3CFFC0188279927E894A9
S113022021912032E9F3293010F02E30C8F32B321B
S113023041F02D3239F4689404C00E945201820FB7
S1130240911D219120532A30C0F31EF4909581957D
S11302509F4F0895FC018191861721F08823D9F7D7
S1130260992708953197CF010895FB01DC0101908E
S11302700D920020E1F708954532510520F44230F3
S113028010F00C944701FB011082CB010895BB27A9
S11302904A3031F4992322F4BDE2909581959F4F21
S11302A00C945B017AE0979F902D879F802D910D90
S11302B011240895BB27FB015527AA27880F991FEE
S11302C0AA1FA41710F0A41B83955051B9F7A05D81
S11302D0AA3308F0A95DA193009779F7B111B193FE
S11302E01192CB010C947401DC01FC01672F719114
S11302F07723E1F7329704C07C916D937083629108
S10F0300AE17BF07C8F30895F894FFCFB0
S113030CDF004F4B0D0A004E4F54205245434F47CC
S10B031C4E495345440D0A004B
S9030000FC
